:0400000049EF0AF0CA
:101000000030313233343536373839414243444584
:1010100046005061757365202020202000436F6ECC
:1010200076657273696F6E0057617474203D20207D
:031030002000009D
:101034002FC02BF030C02CF098EC08F06AEC0AF0CA
:10104400D2EC09F0060E046E970E036E050E37EC13
:101054000AF0110E1A6E3A0EE82EFED71A2EFCD79D
:1010640000D0000E066E000E4AEC09F01B0E016E55
:10107400280E026EF0EC09F01B0E076E086A0CECE9
:1010840009F0010E066E000E4AEC09F01D0E076E03
:101094000750D8A4100E086E0CEC09F0A30E1A6EBB
:1010A400550EE82EFED71A2EFCD70000D1EC0AF01C
:1010B400800E88EC0AF0040E88EC0AF0A3EC0AF027
:1010C400810E88EC0AF05AEC0AF02D6EC6EC0AF098
:1010D4005AEC0AF02E6EBBEC0AF0AFEC0AF0000EEC
:1010E4000C6E2DC00DF0070E7FEC09F0000E0C6E97
:1010F4002EC00DF00A0E7FEC09F0010E066E000EF4
:101104004AEC09F0120E076E0750D8A4100E086EB0
:101114000CEC09F0A30E1A6E550EE82EFED71A2E0B
:10112400FCD7000043EF08F000EF00F0959E959C7B
:10113400959A959895909592959495968C8E270E60
:10114400046EF50EE82EFED7042EFCD70000030E25
:10115400016E010EACEC09F0040E046EE40EE82EF0
:10116400FED7042EFCD700D0030E016E010EACECAA
:1011740009F0210EE82EFED70000030E016E010EC9
:10118400ACEC09F0210EE82EFED70000020E016E31
:10119400010EACEC09F07AEC0AF0020E016E010EBD
:1011A400ACEC09F0080E016E010EACEC09F07AEC1F
:1011B4000AF0000E016E010EACEC09F0080E016E8F
:1011C400010EACEC09F07AEC0AF0000E016E010E8F
:1011D400ACEC09F00C0E016E010EACEC09F07AECEB
:1011E4000AF0000E016E010EACEC09F0010E016E66
:1011F400010EACEC09F07AEC0AF0000E016E010E5F
:10120400ACEC09F0060E016E010EACEC09F07AECC0
:101214000AF01200000E0B6E2AEF09F00B5007249F
:10122400096E000E08200A6E09C0F6FF0AC0F7FF17
:10123400000EF86E0F0EF76403D00800F55005D0C9
:10124400F6CFE9FFF7CFEAFFEF50DBEC0AF00B2A09
:101254000B500724096E000E08200A6E09C0F6FF21
:101264000AC0F7FF000EF86E0F0EF76403D00800F3
:10127400F55005D0F6CFE9FFF7CFEAFFEF500009AC
:10128400D8A447EF09F049EF09F010EF09F0120074
:101294000B6E020E066051EF09F053EF09F07EEF7A
:1012A40009F00F0E0B6459EF09F05BEF09F05DEFE5
:1012B40009F07EEF09F00604D8B463EF09F065EF96
:1012C40009F06FEF09F0800E0BC007F0086A0710F1
:1012D400096E08500A6E77EF09F0C00E0BC007F0D4
:1012E400086A0710096E08500A6E09C004F0010E5E
:1012F40096EC0AF07AEC0AF01200106E010E146EED
:101304000DC00EF00E3A0F0E0E1614500E240F6E72
:101314000FC0F6FF100EF76E0800F5CF11F00DC0E8
:101324000EF00F0E0E1614500E240F6E0FC0F6FFA3
:10133400100EF76E0800F5CF12F0000E136E0CC0FD
:1013440006F010504AEC09F0110E076E086A0CEC16
:1013540009F01200036E0350D8B4B3EF09F0B7EFED
:1013640009F0026A022AB8EF09F0026A023A8C50C4
:101374000218EF0B02188C6E8C9A8C8C8C968C94C1
:101384008C928C900000000001C002F00F0E021637
:101394008C50F00B02108C6E000000008C9C12002C
:1013A400948694880F013A973A99280EC66E0000E5
:1013B40000000000040EC86E000000000000C78E8C
:1013C400C78CCB9ACB9C9E96A196280EC66E000E17
:1013D400C56E010EC86E000EC76E120001C004F087
:1013E400022A0204036E03C0F6FF100EF76E042AED
:1013F4000404D96EDA6A0800F5CFDFFFDF50D8A401
:1014040006EF0AF008EF0AF0F2EF09F012009580F7
:101414009582958495868C8C000000008338F00BAF
:10142400016E8C9C8C8C0000000083500F0B011209
:101434008C9C959095929594959601501200C7B402
:1014440026EF0AF02AEF0AF0016A012A2BEF0AF0CC
:10145400016AC5501F0B01100009D8A434EF0AF02B
:1014640036EF0AF021EF0AF01200056ED1EC0AF013
:10147400800E88EC0AF0055088EC0AF0045088ECE1
:101484000AF0035088EC0AF0AFEC0AF01200C80E20
:10149400F66E150EF76E000EF86E0900F5CF2FF0FC
:1014A4000900F5CF30F0000EF86E00011AEF08F0D5
:1014B40021EC0AF09E96C586C7A063EF0AF065EF9B
:1014C4000AF05EEF0AF09E96C9CF02F002501200B5
:1014D400010E046E010E96EC0AF0110E066E3A0E21
:1014E400E82EFED7062EFCD700D07AEC0AF01200C4
:1014F4008C988C8A09EC0AF0026E02BE84EF0AF022
:1015040086EF0AF07CEF0AF08C9A1200026E21EC4E
:101514000AF09E9602C0C9FF9EA693EF0AF095EFCB
:101524000AF08EEF0AF01200056E04380F0B016EFC
:101534000550ACEC09F004C001F00550ACEC09F026
:10154400120021EC0AF09E96C5829EA6ACEF0AF02A
:10155400AEEF0AF0A7EF0AF0120021EC0AF09E9613
:10156400C5849EA6B8EF0AF0BAEF0AF0B3EF0AF00A
:1015740012009E96C58AC5889EA6C3EF0AF0C5EFE1
:101584000AF0BEEF0AF012009E96C59AC5889EA680
:10159400CEEF0AF0D0EF0AF0C9EF0AF012009E96DF
:1015A400C5809EA6D8EF0AF0DAEF0AF0D3EF0AF06E
:1015B4001200066E06C004F0000E96EC0AF07AECF7
:0615C4000AF01200DF0036
:020000040030CA
:0E000000FF281F3CFFBD81FF0FC00FE00F4027
:00000001FF
