:0400000051EF00F0CC
:100008003182F6CF05F0F7CF06F0F8CF07F0F5CF3D
:1000180008F09EAA12EF00F014EF00F047EF00F08E
:10002800ABA419EF00F01BEF00F025EF00F09E0ED7
:10003800026E35EC04F0B9EC04F0AEEC04F047EFD6
:1000480000F0ABA22AEF00F02CEF00F035EF00F043
:10005800AC0E026E35EC04F0AB980000AB8847EFAD
:1000680000F02E50D8A43BEF00F03DEF00F043EF36
:1000780000F0B9EC04F0AEEC04F047EF00F0B9EC96
:1000880004F0AEEC04F008C0F5FF07C0F8FF06C0A6
:0E009800F7FF05C0F6FF3192110074EF04F07F
:10060000006D616320736574206170706B65792083
:100610003942414134413643384531364242343320
:10062000324434393636453334433046383537333F
:10063000006D616320736574206170706575692059
:100640003233444633313446313246444645313400
:10065000006D61632073657420646576657569203B
:1006600037304233443537454430303637454436E9
:10067000003031323334353637383941424344451E
:1006800046006D61632072657365742038363800EA
:100690006D6163206A6F696E206F746161004672DC
:1006A000616D696E67204572726F72004F76657278
:1006B00072756E204572726F72006D616320736196
:1006C000766500004B0E0A6E000E096E59EC04F0C0
:1006D0008DEC04F0F28E640EE82EFED7010E2E6E25
:1006E000000E136E290E126E940EE82EFED7122EF7
:1006F000FCD700D0132A030E136481EF03F083EFBD
:1007000003F072EF03F0820E0A6E11EC04F0000E9B
:10071000146E290E126E940EE82EFED7122EFCD700
:1007200000D0142A030E146498EF03F09AEF03F03C
:1007300089EF03F0010E0A6E11EC04F0000E156E45
:10074000290E126E940EE82EFED7122EFCD700D082
:10075000152A030E1564AFEF03F0B1EF03F0A0EF1D
:1007600003F0310E0A6E11EC04F0000E166E290E25
:10077000126E940EE82EFED7122EFCD700D0162A49
:10078000030E1664C6EF03F0C8EF03F0B7EF03F0F3
:10079000510E0A6E11EC04F0000E176E290E126E47
:1007A000940EE82EFED7122EFCD700D0172A030E87
:1007B0001764DDEF03F0DFEF03F0CEEF03F0BA0EC6
:1007C0000A6E11EC04F0000E186E290E126E940ED3
:1007D000E82EFED7122EFCD700D0182A030E18647C
:1007E000F4EF03F0F6EF03F0E5EF03F0900E0A6E7E
:1007F00011EC04F0000E196E290E126E940EE82E04
:10080000FED7122EFCD700D0192A030E19640BEF65
:1008100004F00DEF04F0FCEF03F070EF03F051EF84
:1008200000F0000E0C6E1FEF04F00A500C240B6E4B
:100830000BC0F6FF0800F550A3EC04F00C2A0A5098
:100840000C240B6E0BC0F6FF0800F5500009D8A46D
:100850002CEF04F02EEF04F015EF04F00D0EA3ECD6
:1008600004F00A0EA3EC04F01200000E046E43EF35
:1008700004F002500424036E03C0F6FF0800F55094
:10088000AEEC04F0042A02500424036E03C0F6FF09
:100890000800F5500009D8A450EF04F052EF04F01E
:1008A00039EF04F00D0EAEEC04F00A0EAEEC04F0DD
:1008B0001200948C948E0F013A9F000EAC6E000EC5
:1008C000AB6EAC98AC9CAB9CAB88AB969D8A9D986C
:1008D000AC84B8860C0EAF6E000EB06EAC8AAB8ED8
:1008E0009E9A9D8AF28C120001EE00F011EE00F04B
:1008F000EE6AE550E150FCE1E250FAE100EE1AF058
:10090000170EEE6AE806FDE131903192000EF86EA6
:10091000060EF76E000162EF03F0948694880F01D3
:100920003A973A99280EC66E000000000000040EA7
:10093000C86E000000000000C78EC78CCB9ACB9C0D
:100940009E96A1961200096EACA2A9EF04F0ABEF3F
:1009500004F0A4EF04F009C0ADFF1200016EACA2D8
:10096000B4EF04F0B6EF04F0AFEF04F001C0ADFF58
:060970001200AE5012005F
:020000040030CA
:0E000000FF291E3CFFBD81FF0FC00FE00F4027
:00000001FF
