:0400000051EF00F0CC
:100008005382E9CF07F0EACF08F0F6CF09F0F7CF2F
:100018000AF0F8CF0BF0F5CF0CF09EAA16EF00F01F
:1000280018EF00F043EF00F0ABA41DEF00F01FEF56
:1000380000F02BEF00F0B20E026E0250D8A4060EAC
:10004800036ECCEC10F084EC12F043EF00F0ABA29E
:1000580030EF00F032EF00F03FEF00F0C00E026E1C
:100068000250D8A4060E036ECCEC10F0AB9800003A
:10007800AB8843EF00F084EC12F00001BB6F0CC0BA
:10008800F5FF0BC0F8FF0AC0F7FF09C0F6FF08C06C
:0E009800EAFF07C0E9FF5392110036EF11F0A6
:10060000006D616320736574206170706B65792083
:100610003942414134413643384531364242343320
:10062000324434393636453334433046383537333F
:10063000006D616320736574206170706575692059
:100640003233444633313446313246444645313400
:10065000006D61632073657420646576657569203B
:1006600037304233443537454430303637454436E9
:10067000006D616320747820756E636E6620312092
:1006800025782578003031323334353637383941E2
:100690004243444546006D61632072657365742072
:1006A000383638006D6163206A6F696E206F74613F
:1006B00061004672616D696E67204572726F7200EB
:1006C0004F76657272756E204572726F72006D6141
:1006D00063207361766500001050800B196E105016
:1006E00010241B6E0FAE77EF03F079EF03F07AEF73
:1006F00003F01B801B50D8B480EF03F082EF03F0AF
:1007000097EF03F01B28D8A488EF03F08AEF03F0DB
:1007100092EF03F0000E0D6E000E0E6E000E0F6EC7
:10072000000E106E0F8E000E106E9FEF03F0000E85
:100730000D6E000E0E6E000E0F6E000E106E145039
:10074000800B1A6E19501A18D8B4A9EF03F0ABEF4A
:1007500003F0ACEF03F0198C145014241A6E13AE8E
:10076000B4EF03F0B6EF03F0B7EF03F01A801A50BE
:10077000D8B4BDEF03F0BFEF03F0D4EF03F01A28B5
:10078000D8A4C5EF03F0C7EF03F0CFEF03F0000EDE
:10079000116E000E126E000E136E000E146E138E8C
:1007A000000E146EDCEF03F0000E116E000E126EE0
:1007B000000E136E000E146E1B501A5CD8B0E3EFDF
:1007C00003F0E5EF03F00CEF04F019ACEAEF03F0EF
:1007D000ECEF03F0EEEF03F0800E191A1BC01CF0D3
:1007E0001AC01BF01CC01AF00DC01CF011C00DF097
:1007F0001CC011F00EC01CF012C00EF01CC012F094
:100800000FC01CF013C00FF01CC013F010C01CF080
:1008100014C010F01CC014F0000E1C6E1B501AC047
:1008200015F0166A155E000E165A16BE21EF04F07A
:10083000165009E11A0E155CD8A021EF04F023EF41
:1008400004F05AEF04F00D500E100F101010D8A441
:100850002CEF04F02FEF04F0010E30EF04F0000E47
:100860001C6E000E0D6E000E0E6E000E0F6E000E52
:10087000106E1AC01BF063EF04F01CA042EF04F0EE
:1008800044EF04F04AEF04F0D8901C3001091C6ECC
:100890004CEF04F0D8901C320DA051EF04F053EF50
:1008A00004F054EF04F01C8E103410320F320E326C
:1008B0000D321B2A1A501B5CD8A061EF04F063EFC5
:1008C00004F03DEF04F019BC68EF04F06AEF04F0A7
:1008D000AAEF04F01B50D8A470EF04F072EF04F0FC
:1008E0007CEF04F0000E0D6E000E0E6E000E0F6E0B
:1008F000000E106ECBEF05F011500D2612500E2297
:1009000013500F221450102210A089EF04F08BEF27
:1009100004F037EF05F01CA090EF04F092EF04F024
:1009200098EF04F0D8901C3001091C6E9AEF04F087
:10093000D8901C320DA09FEF04F0A1EF04F0A2EFBD
:1009400004F01C8E103410320F320E320D321B2A7E
:1009500037EF05F011500D5C12500E5813500F5820
:100960001050800A156E1450800A1558D8B0BBEF8D
:1009700004F0BDEF04F0E8EF04F00D50115C156ECB
:100980000E501258166E0F501358176E1050145800
:10099000186EFF0E15240D6EFF0E16200E6EFF0E44
:1009A00017200F6EFF0E1820106E800E191A1C6C87
:1009B0001C50D8A4DEEF04F0E0EF04F0F0EF04F0F8
:1009C000010E0D26000E0E220F221022F0EF04F071
:1009D00011500D5E12500E5A13500F5A1450105AE7
:1009E0000D500E100F101010D8A4F9EF04F0FBEF0B
:1009F00004F030EF05F01C50D8A401EF05F003EF30
:100A000005F030EF05F0000E0D6E000E0E6E000EBC
:100A10000F6E000E106ECBEF05F0D8900D360E362F
:100A20000F3610361CAE17EF05F019EF05F01AEF70
:100A300005F00D801CA01FEF05F021EF05F025EF5C
:100A400005F0D8801C3627EF05F0D8901C361B50D7
:100A5000D8B42DEF05F02FEF05F030EF05F01B06B1
:100A60000FAE35EF05F037EF05F00DEF05F0000E96
:100A70001A6E1CAE3EEF05F040EF05F058EF05F0A2
:100A80001CC015F07F0E1516D8B449EF05F04BEFDA
:100A900005F04FEF05F0010E1A6E58EF05F00DA0AE
:100AA00054EF05F056EF05F058EF05F04BEF05F069
:100AB0001A50D8B45EEF05F060EF05F08BEF05F04B
:100AC000010E0D26000E0E220F22102210A06BEF39
:100AD00005F06DEF05F08BEF05F00DC015F00EC0C1
:100AE00016F00FC017F010C018F018341832173273
:100AF0001632153215C00DF016C00EF017C00FF0EB
:100B000018C010F01B28D8B488EF05F08AEF05F064
:100B10008BEF05F01B2A1B28D8B491EF05F093EF5B
:100B200005F09BEF05F01B50D8A499EF05F09BEF63
:100B300005F0ADEF05F0000E0D6E000E0E6E000E0E
:100B40000F6E000E106E1B50D8A4A9EF05F0ABEF8E
:100B500005F0ADEF05F0000E196E1BA0B2EF05F029
:100B6000B4EF05F0B7EF05F00F8EB8EF05F00F9E6C
:100B7000D8901B30106E19AEC0EF05F0C2EF05F033
:100B8000C3EF05F0108E0DC00DF00EC00EF00FC0BB
:100B90000FF010C010F01200E2C032F1E3C033F1E8
:100BA000D7EC11F00EEC11F0060E106E970E0F6ED2
:100BB000000E126E400E116E050E03EC12F0110EB7
:100BC0000001E16F3A0EE82EFED7E12FFCD70000BE
:100BD000D9EC0FF00400D3508F0B5009D36EBCEC4E
:100BE00011F0F28E640EE82EFED7010E4F6E960EB7
:100BF0000E6E0E50D8A4060E0F6E8AEC10F06F0E1B
:100C00000001BB19D8A407EF06F009EF06F0FFEFCB
:100C100005F0000EBB6F010E0E6E0E50D8A4060E2E
:100C20000F6E8AEC10F06F0E0001BB19D8A41BEFF9
:100C300006F01DEF06F013EF06F0000EBB6F310E4D
:100C40000E6E0E50D8A4060E0F6E8AEC10F06F0ECA
:100C50000001BB19D8A42FEF06F031EF06F027EF03
:100C600006F0000EBB6F510E0E6E0E50D8A4060E8D
:100C70000F6E8AEC10F06F0E0001BB19D8A443EF81
:100C800006F045EF06F03BEF06F0000EBB6FCE0E10
:100C90000E6E0E50D8A4060E0F6E8AEC10F06F0E7A
:100CA0000001BB19D8A457EF06F059EF06F04FEF3B
:100CB00006F0000EBB6FA40E0E6E0E50D8A4060EEA
:100CC0000F6E8AEC10F06FEF06F0640EBB19D8A41B
:100CD0006CEF06F06EEF06F06FEF06F0FF00610EAE
:100CE0000001BB19D8A477EF06F079EF06F065EFA5
:100CF00006F0000EBB6F000EBA6F000EB96F000E4B
:100D00000101406FA30E0001E16F550EE82EFED7E2
:100D1000E12FFCD778EC12F0400E26EC12F0000E1A
:100D200026EC12F034EC12F0410E26EC12F016EC28
:100D300012F062EC12F016EC12F057EC12F040ECEC
:100D400012F078EC12F0400E26EC12F0090E26ECB0
:100D500012F034EC12F0410E26EC12F016EC12F008
:100D60000101566F57EC12F040EC12F0BBEF06F0A9
:100D700000D000D0000001015651D8A4C2EF06F007
:100D8000C4EF06F0B8EF06F078EC12F0400E26EC57
:100D900012F0000E26EC12F034EC12F0410E26ECAC
:100DA00012F016EC12F062EC12F016EC12F057ECA6
:100DB00012F040EC12F078EC12F0400E26EC12F03B
:100DC000050E26EC12F034EC12F0410E26EC12F077
:100DD00016EC12F062EC12F016EC12F057EC12F076
:100DE00040EC12F078EC12F0400E26EC12F0090EF6
:100DF00026EC12F034EC12F0410E26EC12F016EC58
:100E000012F00101566F57EC12F040EC12F00CEFAB
:100E100007F000D000D0000001015651D8A413EF14
:100E200007F015EF07F009EF07F078EC12F0400E2D
:100E300026EC12F0050E26EC12F034EC12F0410E06
:100E400026EC12F016EC12F062EC12F016EC12F036
:100E500057EC12F040EC12F078EC12F0800E26EC19
:100E600012F0040E26EC12F034EC12F0810E26EC97
:100E700012F016EC12F00101506F62EC12F016EC59
:100E800012F00101516F57EC12F040EC12F033EC0C
:100E900010F00FC048F110C049F111C04AF112C062
:100EA0004BF148C1C4F049C1C5F04AC1C6F04BC1BD
:100EB000C7F0F4EC0BF0C4C052F1C5C053F1C6C08A
:100EC00054F1C7C055F1000E2F6E000E306E800E2B
:100ED000316E440E326E52C12BF053C12CF054C10E
:100EE0002DF055C12EF012EC08F02BC04CF12CC0A7
:100EF0004DF12DC04EF12EC04FF1000E2F6E000EA1
:100F0000306E800E316E440E326E4CC12BF04DC1EE
:100F10002CF04EC12DF04FC12EF012EC08F02BC07A
:100F200044F02CC045F02DC046F02EC047F0F8EC40
:100F30000EF044C057F145C058F146C059F147C0C2
:100F40005AF159C141F158C142F157C143F152C15F
:100F500034F153C135F154C136F155C137F1A30E07
:100F60000001E16F550EE82EFED7E12FFCD7000EF1
:100F70000001BA6F000EB96F000EB86F000EB76FA8
:100F8000000E0101396F000E386F000E3B6F000E2E
:100F90003A6F000E3D6F000E3C6F000E3F6F000E6B
:100FA0003E6F000E246E010E256E710E266E50C12E
:100FB00027F0286A51C129F02A6A9EEC11F0000E30
:100FC0000E6E010E0F6E8AEC10F082EC12F06D0ABC
:100FD000D8A4EDEF07F0EFEF07F0E5EF07F0F3EF40
:100FE00007F0000EBB6F0001BB51D8A4FAEF07F069
:100FF000FCEF07F0F1EF07F0000E0101456F000E66
:10100000446F000E476F000E466F0300040001019D
:10101000444B452B000E476F000E466FEAEF05F07C
:1010200051EF00F02E50800B376E2E502E243D6E67
:101030002DAE1DEF08F01FEF08F020EF08F03D8007
:101040003D50D8B426EF08F028EF08F03BEF08F049
:101050003D28D8A42EEF08F030EF08F038EF08F064
:10106000000E2B6E000E2C6E000E2D6E000E2E6EDE
:101070002D8E43EF08F0000E2B6E000E2C6E000E2E
:101080002D6E000E2E6E3250800B371A32503224E5
:10109000386E31AE4EEF08F050EF08F051EF08F027
:1010A00038803850D8B457EF08F059EF08F06CEF9B
:1010B00008F03828D8A45FEF08F061EF08F069EF76
:1010C00008F0000E2F6E000E306E000E316E000E16
:1010D000326E318E74EF08F0000E2F6E000E306EFF
:1010E000000E316E000E326E3850D8B47AEF08F030
:1010F0007CEF08F084EF08F03D50D8A482EF08F0B0
:1011000084EF08F08EEF08F0000E2B6E000E2C6EB0
:10111000000E2D6E000E2E6E26EF0AF031502B02BF
:10112000F3CF42F0F4CF43F04250396E3A6A3B6A53
:101130003C6A43503E6E3F6A406A416A30502C021E
:10114000F3CF42F0F4CF43F042503926000E3A225A
:101150003B223C2243503E26000E3F2240224122A9
:101160002F502D02F3CF42F0F4CF43F042503926F6
:10117000000E3A223B223C2243503E26000E3F22E4
:10118000402241223BC03CF03AC03BF039C03AF02B
:10119000396A2F502C02F3CF42F0F4CF43F0425083
:1011A000392643503A22000E3B22000E3C2230509A
:1011B0002B02F3CF42F0F4CF43F042503926435094
:1011C0003A22000E3B22000E3C223BC03CF03AC0CB
:1011D0003BF039C03AF0396A2F502B02F3CF42F07E
:1011E000F4CF43F04250392643503A22000E3B22BE
:1011F000000E3C2231502C02F3CF42F0F4CF43F0EA
:1012000042503E2643503F22000E4022000E412213
:1012100030502D02F3CF42F0F4CF43F042503E263F
:1012200043503F22000E4022000E412231502D0239
:10123000F3CF42F0F4CF43F04250336E4350346E5C
:10124000356A366A35C036F034C035F033C034F014
:10125000336A33503E2634503F22355040223650B8
:10126000412239C033F03AC034F03BC035F03CC0C5
:1012700036F0190E41EF09F0D8903632353234325B
:101280003332E82E3CEF09F033503E2634503F22F3
:1012900035504022365041223BC03CF03AC03BF032
:1012A00039C03AF0396A38503DC033F0346A3326D9
:1012B000000E3422820E3324426EFF0E3420436E21
:1012C00077EF09F0D8903E363F36403641363CAE97
:1012D0006CEF09F06EEF09F06FEF09F03E80D890E7
:1012E00039363A363B363C364206D8A0430640AE45
:1012F0007CEF09F07EEF09F062EF09F0000E386E26
:101300003CAE85EF09F087EF09F0ABEF09F0FF0E77
:101310003914336EFF0E3A14346EFF0E3B14356EE3
:101320007F0E3C14366E3350341035103610D8B45E
:101330009CEF09F09EEF09F0A2EF09F0010E386E64
:10134000ABEF09F03EA0A7EF09F0A9EF09F0ABEF72
:1013500009F09EEF09F03850D8B4B1EF09F0B3EFBF
:1013600009F0D7EF09F0010E3E26000E3F22402281
:10137000412241A0BEEF09F0C0EF09F0D7EF09F01C
:101380003EC033F03FC034F040C035F041C036F0CD
:101390003634363235323432333233C03EF034C034
:1013A0003FF035C040F036C041F0424A432A43BEC8
:1013B000E2EF09F0435008E14228D8A0E2EF09F03B
:1013C000E4EF09F0EEEF09F0000E3E6E000E3F6E06
:1013D000800E406E7F0E416E1CEF0AF043BEFBEFA5
:1013E00009F0435006E14204D8B0F9EF09F0FBEFF1
:1013F00009F007EF0AF0000E3E6E000E3F6E000E81
:10140000406E000E416E000E376E1CEF0AF042C0B7
:101410003DF0FF0E3E16FF0E3F167F0E4016000EEB
:1014200041163DA016EF0AF018EF0AF019EF0AF086
:10143000408ED8903D30416E375041123EC02BF067
:101440003FC02CF040C02DF041C02EF012002E50B5
:10145000800B3B6E2E502E24426E2DAE32EF0AF0E2
:1014600034EF0AF035EF0AF042804250D8B43BEF37
:101470000AF03DEF0AF052EF0AF04228D8A443EFF9
:101480000AF045EF0AF04DEF0AF0000E2B6E000E49
:101490002C6E000E2D6E000E2E6E2D8E000E2E6EFA
:1014A0005AEF0AF0000E2B6E000E2C6E000E2D6E01
:1014B000000E2E6E3250800B3B1A32503224436E97
:1014C00031AE65EF0AF067EF0AF068EF0AF043808B
:1014D0004350D8B46EEF0AF070EF0AF085EF0AF0CF
:1014E0004328D8A476EF0AF078EF0AF080EF0AF0EC
:1014F000000E2F6E000E306E000E316E000E326E3A
:10150000318E000E326E8DEF0AF0000E2F6E000E3F
:10151000306E000E316E000E326E2F5030103110D2
:101520003210D8A496EF0AF098EF0AF0B0EF0AF064
:10153000000E2B6E000E2C6E000E2D6E000E2E6E09
:10154000800E2D127F0E2E123B502E122BC02BF030
:101550002CC02CF02DC02DF02EC02EF0F3EF0BF090
:101560004250D8A4B6EF0AF0B8EF0AF0C2EF0AF082
:10157000000E2B6E000E2C6E000E2D6E000E2E6EC9
:10158000F3EF0BF0435042C033F0346A335E000E89
:10159000345A7F0E33243C6E000E34203D6E2BC037
:1015A00037F02CC038F02DC039F02EC03AF0000EC4
:1015B0002B6E000E2C6E000E2D6E000E2E6E000E89
:1015C0003E6E000E3F6E000E406E000E416E000E2D
:1015D000436E23EF0BF04350D8B4F1EF0AF0F3EF72
:1015E0000AF00AEF0BF0D8903736383639363A36EB
:1015F000D8902B362C362D362E3641AE02EF0BF01E
:1016000004EF0BF005EF0BF02B80D8903E363F3601
:10161000403641362F50375C3050385831503958A9
:1016200032503A58D8A017EF0BF019EF0BF022EF19
:101630000BF0418C2F50375E3050385A3150395AA8
:1016400032503A5A432A190E436429EF0BF02BEF1C
:101650000BF0EBEF0AF03750381039103A10D8B4CD
:1016600034EF0BF036EF0BF04EEF0BF03E804EEF09
:101670000BF0D8902B362C362D362E3641AE43EF5C
:101680000BF045EF0BF046EF0BF02B80D8903E3679
:101690003F36403641363C06D8A03D062DAE53EFCE
:1016A0000BF055EF0BF039EF0BF0000E436E41AE2F
:1016B0005CEF0BF05EEF0BF082EF0BF0FF0E3E14D1
:1016C000336EFF0E3F14346EFF0E4014356E7F0EE6
:1016D0004114366E3350341035103610D8B473EFD1
:1016E0000BF075EF0BF079EF0BF0010E436E82EF0C
:1016F0000BF02BA07EEF0BF080EF0BF082EF0BF0E6
:1017000075EF0BF04350D8B488EF0BF08AEF0BF075
:10171000AEEF0BF0010E2B26000E2C222D222E22D6
:101720002EA095EF0BF097EF0BF0AEEF0BF02BC068
:1017300033F02CC034F02DC035F02EC036F03634E6
:10174000363235323432333233C02BF034C02CF0E1
:1017500035C02DF036C02EF03C4A3D2A3DBEB9EFD3
:101760000BF03D5008E13C28D8A0B9EF0BF0BBEFDF
:101770000BF0C6EF0BF0000E3D6E3C68000E2B6EBA
:10178000000E2C6E000E2D6E000E2E6E3DBED3EFA1
:101790000BF03D5006E13C04D8B0D1EF0BF0D3EF95
:1017A0000BF0E1EF0BF0000E3D6E000E3C6E000EF4
:1017B0002B6E000E2C6E000E2D6E000E2E6E000E87
:1017C0003B6E3CC042F042A0E8EF0BF0EAEF0BF0BA
:1017D000EDEF0BF02D8EEEEF0BF02D9ED8904230FA
:1017E0002E6EA4EF0AF01200000E0001C86F000E6A
:1017F000C96FAA0ECA6F420ECB6F000E2F6E000E7D
:10180000306E800E316E460E326EC4C01DF0C5C003
:101810001EF0C6C01FF0C7C020F0010E67EC0DF02F
:101820001DC02BF01EC02CF01FC02DF020C02EF0CC
:1018300027EC0AF02BC0BCF02CC0BDF02DC0BEF0D0
:101840002EC0BFF0000E2F6E000E306E800E316E77
:10185000440E326E60C01DF061C01EF01F6A206A27
:10186000000E67EC0DF01DC02BF01EC02CF01FC049
:101870002DF020C02EF027EC0AF02BC0C0F02CC0B9
:10188000C1F02DC0C2F02EC0C3F05BEC11F0BCC0A3
:10189000D4F0BDC0D5F0BEC0D6F0BFC0D7F020EEAA
:1018A00062F0DECF1DF0DDCF1EF0000E1EBEFF0E7B
:1018B0001F6E206E010E67EC0DF01DC02BF01EC0D8
:1018C0002CF01FC02DF020C02EF0D4C02FF0D5C0BA
:1018D00030F0D6C031F0D7C032F012EC08F02BC097
:1018E000D4F02CC0D5F02DC0D6F02EC0D7F0000E0D
:1018F0002F6E000E306E000E316E480E326EC4C078
:101900001DF0C5C01EF0C6C01FF0C7C020F0010EFC
:1019100067EC0DF01DC02BF01EC02CF01FC02DF089
:1019200020C02EF027EC0AF02BC0BCF02CC0BDF07C
:101930002DC0BEF02EC0BFF0000E2F6E000E306E18
:10194000000E316E460E326E60C01DF061C01EF09A
:101950001F6A206A000E67EC0DF01DC02BF01EC040
:101960002CF01FC02DF020C02EF027EC0AF02BC069
:10197000C0F02CC0C1F02DC0C2F02EC0C3F05BEC93
:1019800011F0BCC0D8F0BDC0D9F0BEC0DAF0BFC005
:10199000DBF0D8C02FF0D9C030F0DAC031F0DBC0B6
:1019A00032F0D8C02BF0D9C02CF0DAC02DF0DBC05B
:1019B0002EF012EC08F02BC0D0F02CC0D1F02DC0CE
:1019C000D2F02EC0D3F0D0C02BF0D1C02CF0D2C0BA
:1019D0002DF0D3C02EF020EE64F0DECF1DF0DDCF71
:1019E0001EF0000E1EBEFF0E1F6E206E010E67EC75
:1019F0000DF01DC02FF01EC030F01FC031F020C010
:101A000032F012EC08F02BC0D8F02CC0D9F02DC069
:101A1000DAF02EC0DBF0D8C011F0D9C012F0DAC075
:101A200013F0DBC014F0D4C00DF0D5C00EF0D6C05A
:101A30000FF0D7C010F06CEC03F00DC044F00EC0F6
:101A400045F00FC046F010C047F0F8EC0EF044C06F
:101A50001DF045C01EF046C01FF047C020F0010E2B
:101A600067EC0DF0D8C011F0D9C012F0DAC013F055
:101A7000DBC014F0D4C00DF0D5C00EF0D6C00FF00E
:101A8000D7C010F06CEC03F00DC02BF00EC02CF0A2
:101A90000FC02DF010C02EF0000E2F6E000E306E15
:101AA000A00E316E450E326E27EC0AF02BC0CCF042
:101AB0002CC0CDF02DC0CEF02EC0CFF0CCC0C4F0E5
:101AC000CDC0C5F0CEC0C6F0CFC0C7F01200256EA5
:101AD0002550D8B46EEF0DF070EF0DF092EF0DF0D1
:101AE00020BE77EF0DF075EF0DF092EF0DF01DC0F9
:101AF00021F01EC022F01FC023F020C024F0211EC0
:101B0000221E231E241E212A000E222223222422EA
:101B100021C027F022C028F023C029F024C02AF0D9
:101B20009AEF0DF01DC027F01EC028F01FC029F04D
:101B300020C02AF01D501E101F102010D8A4A3EFA3
:101B40000DF0A5EF0DF0AFEF0DF0000E1D6E000EC5
:101B50001E6E000E1F6E000E206E40EF0EF0960EF1
:101B6000266EB9EF0DF0262AD8902A322932283273
:101B70002732000E2714216E000E2814226E000E4C
:101B80002914236EFE0E2A14246E215022102310D5
:101B90002410D8A4CEEF0DF0D0EF0DF0B3EF0DF080
:101BA000DEEF0DF0262A010E2726000E282229221C
:101BB0002A22D8902A32293228322732000E2714BE
:101BC000216E000E2814226E000E2914236EFF0EC3
:101BD0002A14246E2150221023102410D8A4F3EFCD
:101BE0000DF0F5EF0DF0D2EF0DF0FDEF0DF0260644
:101BF000D8902736283629362A3629BE02EF0EF02D
:101C000004EF0EF00CEF0EF0020E26600AEF0EF05D
:101C10000CEF0EF0F7EF0DF026B011EF0EF013EF12
:101C20000EF014EF0EF0299ED890263226C021F037
:101C3000226A236A246A21C024F0236A226A216A64
:101C400021502712225028122350291224502A12E0
:101C50002550D8B42EEF0EF030EF0EF038EF0EF026
:101C600020BE37EF0EF035EF0EF038EF0EF02A8E73
:101C700027C01DF028C01EF029C01FF02AC020F088
:101C800012001650D96EDA6ADFCFF6FF060EF76E35
:101C90000800F550250AD8A450EF0EF052EF0EF0D0
:101CA000E6EF0EF01650D96EDA6ADF2A000E000158
:101CB000B66F000EB56FB5C04EF048684968165053
:101CC000D96EDA6ADF501E6E1EC0F6FF060EF76E82
:101CD0000800F550780AD8A470EF0EF072EF0EF0FD
:101CE000E0EF0EF01750D96EDA6A020EDF26DF5CE5
:101CF000D96EDA6ADECF19F0DECF1AF01650D96E3F
:101D0000DA6A1E28DF6ED4EF0EF0200E1F6E195017
:101D10000F0B1D6E0A0E1D6090EF0EF092EF0EF08D
:101D200096EF0EF0300E1D2698EF0EF0570E1D2682
:101D30001F061F50810FD96EDA6A1DC0DFFF193AE6
:101D40001A3A0F0E19161A50F00B19120F0E1A1616
:101D500019501A10D8B4AFEF0EF0B1EF0EF0C9EF72
:101D60000EF01F50D8A4B7EF0EF0B9EF0EF087EFCA
:101D70000EF0C9EF0EF01F50810FD96EDA6ADF50F6
:101D8000186E18500D6E0E6A15C00FF07CEC0FF037
:101D90001F2A200E1F18D8A4D0EF0EF0D2EF0EF09D
:101DA000BBEF0EF0F7EF0EF01EC0F6FF060EF76E5B
:101DB0000800F550780AD8B485EF0EF0E0EF0EF089
:101DC0001650D96EDA6ADF2AF7EF0EF01650D96E88
:101DD000DA6ADFCFF6FF060EF76E0800F5500D6EDB
:101DE0000E6A15C00FF07CEC0FF0E0EF0EF0120061
:101DF000463447340001C16FC151D8A402EF0FF03F
:101E000004EF0FF00EEF0FF0000E446E000E456E63
:101E1000000E466E000E476E7BEF0FF044C0BCF024
:101E200045C0BDF046C0BEF047C0BFF0200E1EEF5B
:101E30000FF0D890BF33BE33BD33BC33E82E19EF5B
:101E40000FF0BC51C06F468EFF0E4416FF0E4516B4
:101E5000FF0E4616000E4716960EC15FC1BF35EF46
:101E60000FF033EF0FF04BEF0FF0C151800A970FD7
:101E7000D8B03DEF0FF03FEF0FF041EF0FF004EF60
:101E80000FF0D8904732463245324432C13F41EFDD
:101E90000FF063EF0FF01F0EC16551EF0FF053EF1E
:101EA0000FF05BEF0FF004EF0FF0D890443645369B
:101EB00046364736C107C151D8A461EF0FF063EF32
:101EC0000FF055EF0FF0C051D8B469EF0FF06BEF82
:101ED0000FF073EF0FF0471E461E451E446C000EB8
:101EE00045224622472244C044F045C045F046C042
:101EF00046F047C047F012000F50D8B482EF0FF001
:101F000084EF0FF08CEF0FF00F50D8A48AEF0FF092
:101F10008CEF0FF091EF0FF00D5087EC12F0D8EF2F
:101F20000FF00F50D96EDA6A0A0ED926DE50DE1095
:101F3000D8B49DEF0FF09FEF0FF0B8EF0FF00F50F8
:101F4000D96EDA6A0A0ED9260F50E16EE26A030EE4
:101F5000E126DE50E65CE650800A146EDE50800A10
:101F60001458D8B0B6EF0FF0B8EF0FF0D8EF0FF06D
:101F70000F50D96EDA6A030ED926DECF10F0DDCF0E
:101F800011F00F50D96EDA6ADECF12F0DDCF13F008
:101F900010501224D96E11501320DA6E0DC0DFFFDD
:101FA0000F50D96EDA6A030ED926DE2A000EDD2222
:101FB000120078EC12F0EC0E26EC12F0880E26ECF3
:101FC00012F040EC12F078EC12F0ED0E26EC12F06C
:101FD000000E1E6E000E1D6E16EC12F00F6E106AD3
:101FE0001D50020DF350110FD96EDA6A0FC0DEFFDB
:101FF00010C0DDFF62EC12F01D4A1E2A1EBE0AEF61
:1020000010F01E5009E1050E1D5CD8A00AEF10F07B
:102010000CEF10F0ECEF0FF016EC12F00F6E0F500B
:102020001B6E1C6A57EC12F040EC12F01350106E4D
:102030000F6A11500F100001606F12501010616F85
:102040001750106E0F6A15500F10626F1650101057
:10205000636F1B50106E0F6A19500F10646F1A5087
:102060001010656F120078EC12F0EC0E26EC12F0F6
:10207000FA0E26EC12F040EC12F078EC12F0ED0EB5
:1020800026EC12F016EC12F01E6E62EC12F016EC5A
:1020900012F01F6E62EC12F016EC12F0206E57EC8C
:1020A00012F040EC12F01F50136E146A133A143AF7
:1020B000F00E141613500F0B1412F00E13161E50C0
:1020C000156E166A0C0ED89015361636E82E63EF8C
:1020D00010F013501510176E14501610186E20C003
:1020E00019F0193A0F0E191619501712000E18127E
:1020F00017C01AF018C01BF0000E1BBEFF0E1C6E9E
:102100001D6E1AC00FF01BC010F01CC011F01DC0D6
:1021100012F01200000E126EA7EF10F012500E24F3
:10212000106E000E0F20116E10C0F6FF11C0F7FFE9
:10213000F86A050EF76403D00800F55005D0F6CF15
:10214000E9FFF7CFEAFFEF504CEC12F0122A1250E1
:102150000E24106E000E0F20116E10C0F6FF11C07D
:10216000F7FFF86A050EF76403D00800F55005D0B4
:10217000F6CFE9FFF7CFEAFFEF500009D8A4C3EF8D
:1021800010F0C5EF10F08EEF10F00D0E4CEC12F0C9
:102190000A0E4CEC12F01200000E066EE9EF10F081
:1021A00006500224046E000E0320056E04C0F6FFE4
:1021B00005C0F7FFF86A050EF76403D00800F55074
:1021C00005D0F6CFE9FFF7CFEAFFEF506DEC12F044
:1021D000062A06500224046E000E0320056E04C079
:1021E000F6FF05C0F7FFF86A050EF76403D0080094
:1021F000F55005D0F6CFE9FFF7CFEAFFEF50000921
:10220000D8A405EF11F007EF11F0D0EF10F00D0E8C
:102210006DEC12F00A0E6DEC12F0120078EC12F078
:10222000EC0E26EC12F0F20E26EC12F0010E26EC6B
:1022300012F040EC12F078EC12F0EC0E26EC12F0FA
:10224000F40E26EC12F0270E26EC12F040EC12F001
:1022500078EC12F0EC0E26EC12F0F50E26EC12F0F3
:10226000A00E26EC12F040EC12F012000C0EF66EEE
:10227000250EF76E000EF86E0900F5CFE2F00900AA
:10228000F5CFE3F001EE00F0320EEE6AE806FDE174
:1022900000EE60F05C0EEE6AE806FDE100EE48F04C
:1022A0000B0EEE6AE806FDE153905392000EF86EB5
:1022B0000001CCEF05F0000E0001C01B000EC11B99
:1022C000000EC21B800EC31BBCC00DF0BDC00EF0C3
:1022D000BEC00FF0BFC010F0C0C011F0C1C012F0FE
:1022E000C2C013F0C3C014F06CEC03F00DC0BCF01E
:1022F0000EC0BDF00FC0BEF010C0BFF0120021C074
:1023000023F08BEF11F020C015F0230E166E22C0C3
:1023100017F041EC0EF023C0F6FF060EF76E080032
:10232000F5500009D8A497EF11F099EF11F083EF61
:1023300011F0000E216E000E206E1200270E2B6E83
:1023400024C02CF025C02DF0000E306E000E2F6E34
:10235000000E376E000E366E2C0E206E26C021F059
:102360002B0E226E7FEC11F02F502424D96E3050AA
:102370002520DA6EDF6A1200948C948E0F013A9F4A
:10238000000EAC6E000EAB6EAC98AC9CAB9CAB88F8
:10239000AB969D8A9D98AC84B886000EB06E100EE8
:1023A000AF6EAC8AAB8E9E9A9D8AF28C1200948698
:1023B00094880F013A973A99280EC66E00000000E3
:1023C0000000040EC86E000000000000C78EC78C1D
:1023D000CB9ACB9C9E96A1961200C7B4F2EF11F057
:1023E000F6EF11F00D6A0D2AF7EF11F00D6AC550E6
:1023F0001F0B0D100009D8A400EF12F002EF12F02D
:10240000EDEF11F01200136E78EC12F01150112460
:1024100026EC12F0135026EC12F0105026EC12F0BD
:102420000F5026EC12F040EC12F01200EDEC11F01F
:102430009E96C586C7A01FEF12F021EF12F01AEF8B
:1024400012F09E96C9CF0EF00E5012000E6EEDECFB
:1024500011F09E960EC0C9FF9EA631EF12F033EF29
:1024600012F02CEF12F01200EDEC11F09E96C582E6
:102470009EA63DEF12F03FEF12F038EF12F012007F
:10248000EDEC11F09E96C5849EA649EF12F04BEF3D
:1024900012F044EF12F012000D6EACA252EF12F0E7
:1024A00054EF12F04DEF12F00DC0ADFF12009E96EA
:1024B000C58AC5889EA65FEF12F061EF12F05AEF51
:1024C00012F012009E96C59AC5889EA66AEF12F079
:1024D0006CEF12F065EF12F01200016EACA273EF18
:1024E00012F075EF12F06EEF12F001C0ADFF1200A6
:1024F0009E96C5809EA67FEF12F081EF12F07AEFD4
:1025000012F01200AE501200AE501200DF001200A6
:020000040030CA
:0E000000FF291E3FFFBD81FF0FC00FE00F4024
:00000001FF
