:0400000050EF00F0CD
:100008004F82E1CF07F0E2CF08F0F6CF09F0F7CF43
:100018000AF0F8CF0BF0F5CF0CF09EAA16EF00F01F
:1000280018EF00F042EF00F0ABA41DEF00F01FEF57
:1000380000F02BEF00F0B00E026E0250D8A4060EAE
:10004800036E51EC06F02EEC07F042EF00F0ABA285
:1000580030EF00F032EF00F03FEF00F0BE0E026E1E
:100068000250D8A4060E036E51EC06F0AB980000BF
:10007800AB8842EF00F02EEC07F04C6E0CC0F5FF99
:100088000BC0F8FF0AC0F7FF09C0F6FF08C0E2FF7F
:0C00980007C0E1FF4F92110003EF07F0DA
:10060000006D616320736574206170706B65792083
:100610003942414134413643384531364242343320
:10062000324434393636453334433046383537333F
:10063000006D616320736574206170706575692059
:100640003233444633313446313246444645313400
:10065000006D61632073657420646576657569203B
:1006600037304233443537454430303637454436E9
:10067000006D616320747820756E636E6620312092
:10068000256400303132333435363738394142430E
:10069000444546006D616320726573657420383689
:1006A00038006D6163206A6F696E206F746161004C
:1006B0004672616D696E67204572726F72004F7687
:1006C000657272756E204572726F72006D61632083
:1006D0007361766500001850D96EDA6ADFCFF6FFD5
:1006E000060EF76E0800F550250AD8A47AEF03F03D
:1006F0007CEF03F035EF04F01850D96EDA6ADF2A88
:10070000000E406E000E3F6E3FC049F041684268E7
:100710001850D96EDA6ADF501C6E1CC0F6FF060E48
:10072000F76E0800F550640AD8B499EF03F09BEF18
:1007300003F0A9EF03F01CC0F6FF060EF76E0800E9
:10074000F550690AD8A4A7EF03F0A9EF03F02FEF43
:1007500004F01950D96EDA6A020EDF26DF5CD96E1A
:10076000DA6ADECF1DF0DECF1EF01850D96EDA6ADD
:100770001C28DF6E200E216E1EBEC1EF03F0C4EFF9
:1007800003F0010EC5EF03F0000E1B6E2106215091
:10079000600FD96EDA6A1DC00DF01EC00EF0000E9B
:1007A000106E0A0E0F6E62EC05F00DC013F00EC055
:1007B00014F0E9EC06F01350300FDF6E1DC00DF0A1
:1007C0001EC00EF0000E106E0A0E0F6E00EC05F04B
:1007D0000DC01DF00EC01EF01D501E10D8B4F3EF5A
:1007E00003F0F5EF03F0FDEF03F02150D8A4FBEF89
:1007F00003F0FDEF03F0C6EF03F02150D8B403EF90
:1008000004F005EF04F024EF04F01B50D8B40BEF14
:1008100004F00DEF04F024EF04F021062150600FE6
:10082000D96EDA6A2D0EDF6E24EF04F02150600FCE
:10083000D96EDA6ADF501A6E1A500D6E0E6A17C042
:100840000FF0BAEC05F0212A200E2118D8A42BEFC6
:1008500004F02DEF04F016EF04F046EF04F018500A
:10086000D96EDA6ADF2A46EF04F01850D96EDA6AD8
:10087000DFCFF6FF060EF76E0800F5500D6E0E6A1C
:1008800017C00FF0BAEC05F02FEF04F01200D350B0
:100890008F0B5009D36ECEEC06F0F28E640EE82E6C
:1008A000FED7010E4A6E940E0E6E0E50D8A4060EA0
:1008B0000F6E0FEC06F06F0E4C18D8A462EF04F028
:1008C00064EF04F05BEF04F0000E4C6E010E0E6E50
:1008D0000E50D8A4060E0F6E0FEC06F06F0E4C18DB
:1008E000D8A475EF04F077EF04F06EEF04F0000E7B
:1008F0004C6E310E0E6E0E50D8A4060E0F6E0FEC1D
:1009000006F06F0E4C18D8A488EF04F08AEF04F0BC
:1009100081EF04F0000E4C6E510E0E6E0E50D8A4F6
:10092000060E0F6E0FEC06F06F0E4C18D8A49BEF5E
:1009300004F09DEF04F094EF04F0000E4C6ECC0E2A
:100940000E6E0E50D8A4060E0F6E0FEC06F06F0E52
:100950004C18D8A4AEEF04F0B0EF04F0A7EF04F009
:10096000000E4C6EA20E0E6E0E50D8A4060E0F6E28
:100970000FEC06F0C6EF04F0640E4C18D8A4C3EFD9
:1009800004F0C5EF04F0C6EF04F0FF00610E4C1850
:10099000D8A4CDEF04F0CFEF04F0BCEF04F0000ECC
:1009A0004C6E000E446E0A0E436E434A442A800E7B
:1009B000266E710E276E43C028F044C029F0B2ECB9
:1009C00006F0800E0E6E0F6A0FEC06F02CEC07F0AE
:1009D0006D0AD8A4EEEF04F0F0EF04F0E6EF04F0B7
:1009E000F4EF04F0000E4C6E4C50D8A4FAEF04F073
:1009F000FCEF04F0F2EF04F0D5EF04F050EF00F05C
:100A0000000E126E10BE09EF05F007EF05F00FEFB4
:100A100005F00F6C101ED8B0102A010E126E0EBE1B
:100A200016EF05F014EF05F01CEF05F00D6C0E1E2F
:100A3000D8B00E2A010E121A000E146E000E136E9C
:100A40000F501010D8B427EF05F029EF05F051EF43
:100A500005F0010E116E31EF05F0D8900F3610360B
:100A6000112A10AE36EF05F038EF05F02DEF05F046
:100A7000D890133614360F500D5C10500E58D8A075
:100A800044EF05F046EF05F04BEF05F00F500D5E1B
:100A900010500E5A1380D89010320F32112E38EFAA
:100AA00005F01250D8B457EF05F059EF05F05DEF9F
:100AB00005F0136C141ED8B0142A13C00DF014C026
:100AC0000EF01200000E126E0EBE6BEF05F069EF15
:100AD00005F071EF05F00D6C0E1ED8B00E2A010E58
:100AE000126E10BE78EF05F076EF05F07CEF05F0A2
:100AF0000F6C101ED8B0102A0F501010D8B483EF0E
:100B000005F085EF05F0A9EF05F0010E116E8DEFF0
:100B100005F0D8900F361036112A10AE92EF05F07E
:100B200094EF05F089EF05F00F500D5C10500E5852
:100B3000D8A09DEF05F09FEF05F0A3EF05F00F5053
:100B40000D5E10500E5AD89010320F32112E94EFC5
:100B500005F01250D8B4AFEF05F0B1EF05F0B5EFE6
:100B600005F00D6C0E1ED8B00E2A0DC00DF00EC093
:100B70000EF012000F50D8B4C0EF05F0C2EF05F030
:100B8000CAEF05F00F50D8A4C8EF05F0CAEF05F082
:100B9000CFEF05F00D5030EC07F00EEF06F00F50E0
:100BA000D96EDA6A0A0ED926DE50DE10D8B4DBEF31
:100BB00005F0DDEF05F0F6EF05F00F50D96EDA6ABB
:100BC0000A0ED9260F50E16EE26A030EE126DE50CE
:100BD000E65CE650800A146EDE50800A1458D8B0E5
:100BE000F4EF05F0F6EF05F00EEF06F00F50D96EBA
:100BF000DA6A030ED926DF50106E0F50D96EDA6A0A
:100C0000DF501024D96EDA6A0DC0DFFF0F50D96EA5
:100C1000DA6A030ED926DE2A000EDD221200000E4B
:100C2000126E2CEF06F012500E24106E000E0F20E4
:100C3000116E10C0F6FF11C0F7FFF86A050EF764D9
:100C400003D00800F55005D0F6CFE1FFF7CFE2FF63
:100C5000E75016EC07F0122A12500E24106E000E08
:100C60000F20116E10C0F6FF11C0F7FFF86A050ED5
:100C7000F76403D00800F55005D0F6CFE1FFF7CFB9
:100C8000E2FFE7500009D8A448EF06F04AEF06F06B
:100C900013EF06F00D0E16EC07F00A0E16EC07F037
:100CA0001200000E066E6EEF06F006500224046E6F
:100CB000000E0320056E04C0F6FF05C0F7FFF86ABA
:100CC000050EF76403D00800F55005D0F6CFE1FF1C
:100CD000F7CFE2FFE75021EC07F0062A0650022486
:100CE000046E000E0320056E04C0F6FF05C0F7FF7A
:100CF000F86A050EF76403D00800F55005D0F6CF6A
:100D0000E1FFF7CFE2FFE7500009D8A48AEF06F031
:100D10008CEF06F055EF06F00D0E21EC07F00A0EF1
:100D200021EC07F0120023C025F09FEF06F022C04F
:100D300017F0250E186E24C019F06BEC03F025C0D7
:100D4000F6FF060EF76E0800F5500009D8A4ABEFC9
:100D500006F0ADEF06F097EF06F0000E236E000EE2
:100D6000226E1200280E0001B26F26C0B3F0000EF2
:100D7000B76F000EB66F000EBE6F000EBD6FB30EE4
:100D8000226E27C023F0B20E246E93EC06F026509C
:100D90000001B625D96EDA6ADF6A1200948C948E4F
:100DA0000F013A9F000EAC6E000EAB6EAC98AC9C7F
:100DB000AB9CAB88AB969D8A9D98AC84B886000EA0
:100DC000B06E100EAF6EAC8AAB8E9E9A9D8AF28C7E
:100DD000120014BEEEEF06F0F0EF06F0F6EF06F0AC
:100DE00013C013F014C014F002EF07F013C015F095
:100DF00014C016F0151E161E154A162A15C013F03B
:100E000016C014F0120000EE60F0520EEE6AE80612
:100E1000FDE100EE2FF0200EEE6AE806FDE14F90B6
:100E20004F92000EF86E000147EF04F00D6EACA279
:100E30001CEF07F01EEF07F017EF07F00DC0ADFF36
:100E40001200016EACA227EF07F029EF07F022EFA6
:100E500007F001C0ADFF1200AE501200AE501200FC
:020E600012007E
:020000040030CA
:0E000000FF291E3CFFBD81FF0FC00FE00F4027
:00000001FF
