:0400000081EF15F087
:101000000030313233343536373839414243444584
:071010004600430050000000
:101018000450800B0D6E045004240F6E03AE17EFBE
:1010280008F019EF08F01AEF08F00F800F50D8B445
:1010380020EF08F022EF08F037EF08F00F28D8A4C7
:1010480028EF08F02AEF08F032EF08F0000E016EE2
:10105800000E026E000E036E000E046E038E000E6C
:10106800046E3FEF08F0000E016E000E026E000ED7
:10107800036E000E046E0850800B0E6E0D500E1895
:10108800D8B449EF08F04BEF08F04CEF08F00D8C9E
:10109800085008240E6E07AE54EF08F056EF08F01B
:1010A80057EF08F00E800E50D8B45DEF08F05FEFF0
:1010B80008F074EF08F00E28D8A465EF08F067EF81
:1010C80008F06FEF08F0000E056E000E066E000EB9
:1010D800076E000E086E078E000E086E7CEF08F093
:1010E800000E056E000E066E000E076E000E086EEE
:1010F8000F500E5CD8B083EF08F085EF08F0ACEF26
:1011080008F00DAC8AEF08F08CEF08F08EEF08F0CD
:10111800800E0D1A0FC010F00EC00FF010C00EF0A8
:1011280001C010F005C001F010C005F002C010F0B9
:1011380006C002F010C006F003C010F007C003F0AC
:1011480010C007F004C010F008C004F010C008F088
:10115800000E106E0F500EC009F00A6A095E000EEC
:101168000A5A0ABEC1EF08F00A5009E11A0E095CD2
:10117800D8A0C1EF08F0C3EF08F0FAEF08F001506B
:10118800021003100410D8A4CCEF08F0CFEF08F039
:10119800010ED0EF08F0000E106E000E016E000E6A
:1011A800026E000E036E000E046E0EC00FF003EF09
:1011B80009F010A0E2EF08F0E4EF08F0EAEF08F019
:1011C800D89010300109106EECEF08F0D89010326A
:1011D80001A0F1EF08F0F3EF08F0F4EF08F0108E3B
:1011E800043404320332023201320F2A0E500F5CEB
:1011F800D8A001EF09F003EF09F0DDEF08F00DBC0E
:1012080008EF09F00AEF09F04AEF09F00F50D8A4E7
:1012180010EF09F012EF09F01CEF09F0000E016E53
:10122800000E026E000E036E000E046E6BEF0AF0E5
:1012380005500126065002220750032208500422B6
:1012480004A029EF09F02BEF09F0D7EF09F010A05F
:1012580030EF09F032EF09F038EF09F0D89010308C
:101268000109106E3AEF09F0D890103201A03FEF53
:1012780009F041EF09F042EF09F0108E043404320E
:101288000332023201320F2AD7EF09F00550015C10
:1012980006500258075003580450800A096E085037
:1012A800800A0958D8B05BEF09F05DEF09F088EFC4
:1012B80009F00150055C096E025006580A6E035089
:1012C80007580B6E045008580C6EFF0E0924016E67
:1012D800FF0E0A20026EFF0E0B20036EFF0E0C207D
:1012E800046E800E0D1A106C1050D8A47EEF09F011
:1012F80080EF09F090EF09F0010E0126000E02229E
:101308000322042290EF09F00550015E0650025AAC
:101318000750035A0850045A0150021003100410D1
:10132800D8A499EF09F09BEF09F0D0EF09F010501D
:10133800D8A4A1EF09F0A3EF09F0D0EF09F0000E4F
:10134800016E000E026E000E036E000E046E6BEF4F
:101358000AF0D890013602360336043610AEB7EFDD
:1013680009F0B9EF09F0BAEF09F0018010A0BFEF5A
:1013780009F0C1EF09F0C5EF09F0D8801036C7EFC2
:1013880009F0D89010360F50D8B4CDEF09F0CFEF50
:1013980009F0D0EF09F00F0603AED5EF09F0D7EF4B
:1013A80009F0ADEF09F0000E0E6E10AEDEEF09F099
:1013B800E0EF09F0F8EF09F010C009F07F0E091608
:1013C800D8B4E9EF09F0EBEF09F0EFEF09F0010EFF
:1013D8000E6EF8EF09F001A0F4EF09F0F6EF09F04E
:1013E800F8EF09F0EBEF09F00E50D8B4FEEF09F072
:1013F80000EF0AF02BEF0AF0010E0126000E022280
:101408000322042204A00BEF0AF00DEF0AF02BEFE1
:101418000AF001C009F002C00AF003C00BF004C0D2
:101428000CF00C340C320B320A32093209C001F0CC
:101438000AC002F00BC003F00CC004F00F28D8B4A7
:1014480028EF0AF02AEF0AF02BEF0AF00F2A0F28EC
:10145800D8B431EF0AF033EF0AF03BEF0AF00F503F
:10146800D8A439EF0AF03BEF0AF04DEF0AF0000E6E
:10147800016E000E026E000E036E000E046E0F5019
:10148800D8A449EF0AF04BEF0AF04DEF0AF0000E2E
:101498000D6E0FA052EF0AF054EF0AF057EF0AF062
:1014A800038E58EF0AF0039ED8900F30046E0DAEED
:1014B80060EF0AF062EF0AF063EF0AF0048E01C0F1
:1014C80001F002C002F003C003F004C004F01200EF
:1014D8002250800B2B6E22502224316E21AE77EFE2
:1014E8000AF079EF0AF07AEF0AF031803150D8B477
:1014F80080EF0AF082EF0AF095EF0AF03128D8A4BD
:1015080088EF0AF08AEF0AF092EF0AF0000E1F6ED9
:10151800000E206E000E216E000E226E218E9DEFB1
:101528000AF0000E1F6E000E206E000E216E000ED7
:10153800226E2650800B2B1A26502624306E25AE9C
:10154800A8EF0AF0AAEF0AF0ABEF0AF030803050AB
:10155800D8B4B1EF0AF0B3EF0AF0C6EF0AF03028BA
:10156800D8A4B9EF0AF0BBEF0AF0C3EF0AF0000EF7
:10157800236E000E246E000E256E000E266E258E3C
:10158800CEEF0AF0000E236E000E246E000E256EBC
:10159800000E266E3050D8B4D4EF0AF0D6EF0AF019
:1015A800DEEF0AF03150D8A4DCEF0AF0DEEF0AF0E3
:1015B800E8EF0AF0000E1F6E000E206E000E216E7E
:1015C800000E226E80EF0CF025501F02F3CF36F08C
:1015D800F4CF37F036502C6E2D6A2E6A2F6A3750AA
:1015E800326E336A346A356A24502002F3CF36F0FB
:1015F800F4CF37F036502C26000E2D222E222F2223
:1016080037503226000E332234223522235021024D
:10161800F3CF36F0F4CF37F036502C26000E2D22BB
:101628002E222F2237503226000E33223422352222
:101638002EC02FF02DC02EF02CC02DF02C6A235078
:101648002002F3CF36F0F4CF37F036502C2637503F
:101658002D22000E2E22000E2F2224501F02F3CF1F
:1016680036F0F4CF37F036502C2637502D22000EA6
:101678002E22000E2F222EC02FF02DC02EF02CC0AF
:101688002DF02C6A23501F02F3CF36F0F4CF37F039
:1016980036502C2637502D22000E2E22000E2F22D7
:1016A80025502002F3CF36F0F4CF37F036503226EB
:1016B80037503322000E3422000E352224502102E6
:1016C800F3CF36F0F4CF37F0365032263750332286
:1016D800000E3422000E352225502102F3CF36F0B9
:1016E800F4CF37F03650276E3750286E296A2A6AA9
:1016F80029C02AF028C029F027C028F0276A2750D7
:10170800322628503322295034222A5035222CC020
:1017180027F02DC028F02EC029F02FC02AF0190E6E
:101728009BEF0BF0D8902A32293228322732E82E44
:1017380096EF0BF0275032262850332229503422B6
:101748002A5035222EC02FF02DC02EF02CC02DF09F
:101758002C6A305031C027F0286A2726000E28222C
:10176800820E2724366EFF0E2820376ED1EF0BF03D
:10177800D89032363336343635362FAEC6EF0BF0C6
:10178800C8EF0BF0C9EF0BF03280D8902C362D360D
:101798002E362F363606D8A0370634AED6EF0BF0E5
:1017A800D8EF0BF0BCEF0BF0000E306E2FAEDFEF72
:1017B8000BF0E1EF0BF005EF0CF0FF0E2C14276E89
:1017C800FF0E2D14286EFF0E2E14296E7F0E2F1477
:1017D8002A6E2750281029102A10D8B4F6EF0BF0DB
:1017E800F8EF0BF0FCEF0BF0010E306E05EF0CF08C
:1017F80032A001EF0CF003EF0CF005EF0CF0F8EF5E
:101808000BF03050D8B40BEF0CF00DEF0CF031EFBB
:101818000CF0010E3226000E33223422352235A078
:1018280018EF0CF01AEF0CF031EF0CF032C027F083
:1018380033C028F034C029F035C02AF02A342A32BF
:1018480029322832273227C032F028C033F029C085
:1018580034F02AC035F0364A372A37BE3CEF0CF050
:10186800375008E13628D8A03CEF0CF03EEF0CF0DA
:1018780048EF0CF0000E326E000E336E800E346EA0
:101888007F0E356E76EF0CF037BE55EF0CF0375003
:1018980006E13604D8B053EF0CF055EF0CF061EFC9
:1018A8000CF0000E326E000E336E000E346E000E19
:1018B800356E000E2B6E76EF0CF036C031F0FF0E51
:1018C8003216FF0E33167F0E3416000E351631A071
:1018D80070EF0CF072EF0CF073EF0CF0348ED890C0
:1018E8003130356E2B50351232C01FF033C020F026
:1018F80034C021F035C022F012002250800B2F6E28
:1019080022502224366E21AE8CEF0CF08EEF0CF0B4
:101918008FEF0CF036803650D8B495EF0CF097EF77
:101928000CF0ACEF0CF03628D8A49DEF0CF09FEF2C
:101938000CF0A7EF0CF0000E1F6E000E206E000ECC
:10194800216E000E226E218E000E226EB4EF0CF076
:10195800000E1F6E000E206E000E216E000E226E0D
:101968002650800B2F1A26502624376E25AEBFEF3F
:101978000CF0C1EF0CF0C2EF0CF037803750D8B440
:10198800C8EF0CF0CAEF0CF0DFEF0CF03728D8A442
:10199800D0EF0CF0D2EF0CF0DAEF0CF0000E236E63
:1019A800000E246E000E256E000E266E258E000E8B
:1019B800266EE7EF0CF0000E236E000E246E000E6C
:1019C800256E000E266E2350241025102610D8A44C
:1019D800F0EF0CF0F2EF0CF00AEF0DF0000E1F6EB6
:1019E800000E206E000E216E000E226E800E211257
:1019F8007F0E22122F5022121FC01FF020C020F08D
:101A080021C021F022C022F04DEF0EF03650D8A4AC
:101A180010EF0DF012EF0DF01CEF0DF0000E1F6E21
:101A2800000E206E000E216E000E226E4DEF0EF09D
:101A3800375036C027F0286A275E000E285A7F0ED6
:101A48002724306E000E2820316E1FC02BF020C0D6
:101A58002CF021C02DF022C02EF0000E1F6E000EBB
:101A6800206E000E216E000E226E000E326E000EE9
:101A7800336E000E346E000E356E000E376E7DEF3D
:101A88000DF03750D8B44BEF0DF04DEF0DF064EF7B
:101A98000DF0D8902B362C362D362E36D8901F3692
:101AA80020362136223635AE5CEF0DF05EEF0DF0B4
:101AB8005FEF0DF01F80D890323633363436353626
:101AC80023502B5C24502C5825502D5826502E5826
:101AD800D8A071EF0DF073EF0DF07CEF0DF0358CA1
:101AE80023502B5E24502C5A25502D5A26502E5AFE
:101AF800372A190E376483EF0DF085EF0DF045EFA7
:101B08000DF02B502C102D102E10D8B48EEF0DF098
:101B180090EF0DF0A8EF0DF03280A8EF0DF0D890FF
:101B28001F3620362136223635AE9DEF0DF09FEF59
:101B38000DF0A0EF0DF01F80D890323633363436D2
:101B480035363006D8A0310621AEADEF0DF0AFEF37
:101B58000DF093EF0DF0000E376E35AEB6EF0DF0C9
:101B6800B8EF0DF0DCEF0DF0FF0E3214276EFF0E0C
:101B78003314286EFF0E3414296E7F0E35142A6E26
:101B88002750281029102A10D8B4CDEF0DF0CFEF28
:101B98000DF0D3EF0DF0010E376EDCEF0DF01FA046
:101BA800D8EF0DF0DAEF0DF0DCEF0DF0CFEF0DF020
:101BB8003750D8B4E2EF0DF0E4EF0DF008EF0EF077
:101BC800010E1F26000E20222122222222A0EFEF42
:101BD8000DF0F1EF0DF008EF0EF01FC027F020C058
:101BE80028F021C029F022C02AF02A342A322932CA
:101BF8002832273227C01FF028C020F029C021F042
:101C08002AC022F0304A312A31BE13EF0EF031508B
:101C180008E13028D8A013EF0EF015EF0EF020EFF2
:101C28000EF0000E316E3068000E1F6E000E206E32
:101C3800000E216E000E226E31BE2DEF0EF03150D7
:101C480006E13004D8B02BEF0EF02DEF0EF03BEF8D
:101C58000EF0000E316E000E306E000E1F6E000E7C
:101C6800206E000E216E000E226E000E2F6E30C008
:101C780036F036A042EF0EF044EF0EF047EF0EF0CC
:101C8800218E48EF0EF0219ED8903630226EFEEF5E
:101C98000CF01200000E466E000E476EAA0E486E3B
:101CA800420E496E000E236E000E246E800E256EC5
:101CB800460E266E42C011F043C012F044C013F025
:101CC80045C014F0010ECCEC10F011C01FF012C08A
:101CD80020F013C021F014C022F081EC0CF01FC0DA
:101CE80038F020C039F021C03AF022C03BF0000E95
:101CF800236E000E246E800E256E440E266E60C084
:101D080011F061C012F0136A146A000ECCEC10F0E6
:101D180011C01FF012C020F013C021F014C022F02F
:101D280081EC0CF01FC03CF020C03DF021C03EF01B
:101D380022C03FF028EC15F038C052F039C053F0FB
:101D48003AC054F03BC055F020EE62F0DECF11F0FF
:101D5800DDCF12F0000E12BEFF0E136E146E010ED0
:101D6800CCEC10F011C01FF012C020F013C021F00D
:101D780014C022F052C023F053C024F054C025F000
:101D880055C026F06CEC0AF01FC052F020C053F08A
:101D980021C054F022C055F0000E236E000E246EB0
:101DA800000E256E480E266E42C011F043C012F098
:101DB80044C013F045C014F0010ECCEC10F011C073
:101DC8001FF012C020F013C021F014C022F081ECE3
:101DD8000CF01FC038F020C039F021C03AF022C002
:101DE8003BF0000E236E000E246E000E256E460E8C
:101DF800266E60C011F061C012F0136A146A000EFA
:101E0800CCEC10F011C01FF012C020F013C021F06C
:101E180014C022F081EC0CF01FC03CF020C03DF053
:101E280021C03EF022C03FF028EC15F038C056F033
:101E380039C057F03AC058F03BC059F056C023F0AB
:101E480057C024F058C025F059C026F056C01FF0DE
:101E580057C020F058C021F059C022F06CEC0AF0AD
:101E68001FC04EF020C04FF021C050F022C051F0EA
:101E78004EC01FF04FC020F050C021F051C022F0DA
:101E880020EE64F0DECF11F0DDCF12F0000E12BEAE
:101E9800FF0E136E146E010ECCEC10F011C023F07F
:101EA80012C024F013C025F014C026F06CEC0AF020
:101EB8001FC056F020C057F021C058F022C059F07A
:101EC80056C005F057C006F058C007F059C008F0D2
:101ED80052C001F053C002F054C003F055C004F0E2
:101EE8000CEC08F001C038F002C039F003C03AF039
:101EF80004C03BF0A6EC11F038C011F039C012F064
:101F08003AC013F03BC014F0010ECCEC10F056C0F0
:101F180005F057C006F058C007F059C008F052C085
:101F280001F053C002F054C003F055C004F00CECAB
:101F380008F001C01FF002C020F003C021F004C067
:101F480022F0000E236E000E246EA00E256E450EA4
:101F5800266E81EC0CF01FC04AF020C04BF021C067
:101F68004CF022C04DF04AC042F04BC043F04CC088
:101F780044F04DC045F0120098C085F099C086F035
:101F880029EC12F0C1EC15F04BEC15F0DAEC14F07A
:101F9800060E046E970E036E000E066E400E056E5A
:101FA800050EAEEC15F0110E5F6E3A0EE82EFED758
:101FB8005F2EFCD700D074EC13F0010E066E000EF5
:101FC80046EC14F0120E076E0750D8A4100E086ED7
:101FD800CEEC13F0A30E5F6E550EE82EFED75F2EE3
:101FE800FCD7000038EC16F0400EEFEC15F0000EB0
:101FF800EFEC15F00AEC16F0410EEFEC15F0D1EC11
:1020080015F02DEC16F0D1EC15F022EC16F016ECCC
:1020180016F038EC16F0400EEFEC15F0090EEFEC68
:1020280015F00AEC16F0410EEFEC15F0D1EC15F0B6
:102038000001976F22EC16F016EC16F027EF10F05F
:1020480000D000D0000000019751D8A42EEF10F066
:1020580030EF10F024EF10F038EC16F0400EEFECF3
:1020680015F0000EEFEC15F00AEC16F0410EEFEC4F
:1020780015F0D1EC15F00001936F2DEC16F0D1ECB2
:1020880015F00001946F22EC16F016EC16F0000E15
:102098000C6E93C00DF0000EADEC14F0000E0C6E3B
:1020A80094C00DF0020EADEC14F038EC16F0800E72
:1020B800EFEC15F0040EEFEC15F00AEC16F0810EBB
:1020C800EFEC15F0D1EC15F00001956F2DEC16F042
:1020D800D1EC15F00001966F22EC16F016EC16F014
:1020E800000E0C6E95C00DF0070EADEC14F0000E4E
:1020F8000C6E96C00DF0090EADEC14F09DEC12F0CC
:1021080015C087F016C088F017C089F018C08AF08B
:1021180087C042F088C043F089C044F08AC045F0C7
:102128004EEC0EF042C08BF043C08CF044C08DF0F2
:1021380045C08EF08BC08FF08CC090F08DC091F0B0
:102148008EC092F0000E476E8FC048F090C049F0E4
:1021580091C04AF092C04BF00C0E09EC13F0010E3E
:10216800066E000E46EC14F0140E076E0750D8A445
:10217800100E086ECEEC13F0A30E5F6E550EE82E0F
:10218800FED75F2EFCD70000E1EF0FF000EF00F064
:10219800196E1950D8B4D3EF10F0D5EF10F0F7EF4F
:1021A80010F014BEDCEF10F0DAEF10F0F7EF10F0DB
:1021B80011C015F012C016F013C017F014C018F0B3
:1021C800151E161E171E181E152A000E1622172277
:1021D800182215C01BF016C01CF017C01DF018C03F
:1021E8001EF0FFEF10F011C01BF012C01CF013C05E
:1021F8001DF014C01EF01150121013101410D8A4A2
:1022080008EF11F00AEF11F014EF11F0000E116E43
:10221800000E126E000E136E000E146EA5EF11F074
:10222800960E1A6E1EEF11F01A2AD8901E321D3221
:102238001C321B32000E1B14156E000E1C14166E79
:10224800000E1D14176EFE0E1E14186E1550161073
:1022580017101810D8A433EF11F035EF11F018EF5C
:1022680011F043EF11F01A2A010E1B26000E1C2252
:102278001D221E22D8901E321D321C321B32000E27
:102288001B14156E000E1C14166E000E1D14176E0E
:10229800FF0E1E14186E1550161017101810D8A41B
:1022A80058EF11F05AEF11F037EF11F062EF11F01B
:1022B8001A06D8901B361C361D361E361DBE67EF13
:1022C80011F069EF11F071EF11F0020E1A606FEF63
:1022D80011F071EF11F05CEF11F01AB076EF11F018
:1022E80078EF11F079EF11F01D9ED8901A321AC0CC
:1022F80015F0166A176A186A15C018F0176A166A70
:10230800156A15501B1216501C1217501D12185022
:102318001E121950D8B493EF11F095EF11F09DEFFC
:1023280011F014BE9CEF11F09AEF11F09DEF11F02F
:102338001E8E1BC011F01CC012F01DC013F01EC071
:1023480014F012003A343B34416E4150D8A4AFEF38
:1023580011F0B1EF11F0BBEF11F0000E386E000E66
:10236800396E000E3A6E000E3B6E28EF12F038C040
:102378003CF039C03DF03AC03EF03BC03FF0200E83
:10238800CBEF11F0D8903F323E323D323C32E82E4E
:10239800C6EF11F03C50406E3A8EFF0E3816FF0E15
:1023A8003916FF0E3A16000E3B16960E415E41BED8
:1023B800E2EF11F0E0EF11F0F8EF11F04150800A70
:1023C800970FD8B0EAEF11F0ECEF11F0EEEF11F043
:1023D800B1EF11F0D8903B323A3239323832413EBF
:1023E800EEEF11F010EF12F01F0E4164FEEF11F046
:1023F80000EF12F008EF12F0B1EF11F0D890383674
:1024080039363A363B3641064150D8A40EEF12F021
:1024180010EF12F002EF12F04050D8B416EF12F09D
:1024280018EF12F020EF12F03B1E3A1E391E386CDE
:10243800000E39223A223B2238C038F039C039F030
:102448003AC03AF03BC03BF01200959E959C959A95
:10245800959895909592959495968C8E270E046EE6
:10246800F50EE82EFED7042EFCD70000030E016EF1
:10247800010E02EC15F0040E046EE40EE82EFED7F1
:10248800042EFCD700D0030E016E010E02EC15F0ED
:10249800210EE82EFED70000030E016E010E02EC9D
:1024A80015F0210EE82EFED70000020E016E010E77
:1024B80002EC15F0E1EC15F0020E016E010E02ECD3
:1024C80015F0080E016E010E02EC15F0E1EC15F0A6
:1024D800000E016E010E02EC15F0080E016E010EE1
:1024E80002EC15F0E1EC15F0000E016E010E02ECA5
:1024F80015F00C0E016E010E02EC15F0E1EC15F072
:10250800000E016E010E02EC15F0010E016E010EB7
:1025180002EC15F0E1EC15F0000E016E010E02EC74
:1025280015F0060E016E010E02EC15F0E1EC15F047
:10253800120038EC16F0EC0EEFEC15F0FA0EEFEC9A
:1025480015F016EC16F038EC16F0ED0EEFEC15F071
:10255800D1EC15F0246E2DEC16F0D1EC15F0256EAB
:102568002DEC16F0D1EC15F0266E22EC16F016ECD8
:1025780016F0010E0C6E24C00DF00A0EADEC14F02E
:10258800010E0C6E25C00DF00C0EADEC14F0010E12
:102598000C6E26C00DF00E0EADEC14F02550196E21
:1025A8001A6A193A1A3AF00E1A1619500F0B1A121B
:1025B800F00E191624501B6E1C6A0C0ED8901B3690
:1025C8001C36E82EE2EF12F019501B101D6E1A503F
:1025D8001C101E6E26C01FF01F3A0F0E1F161F502C
:1025E8001D12000E1E121DC020F01EC021F0000E8C
:1025F80021BEFF0E226E236E20C015F021C016F0FA
:1026080022C017F023C018F012004C6E000E236E83
:10261800000E246EC80E256E420E266E48C01FF0AE
:1026280049C020F04AC021F04BC022F06CEC0AF0FF
:102638001FC038F020C039F021C03AF022C03BF06A
:10264800A6EC11F038C042F039C043F0030E456ED5
:10265800E80E446E7BEC14F042C052F043C053F0D5
:1026680052C001F053C002F0000E046E640E036EF7
:102678000CEC14F00150300F4D6E2E0E4E6E000E05
:10268800046E0A0E036E52C001F053C002F00CEC47
:1026980014F001C042F002C043F0000E456E0A0E6D
:1026A800446E7BEC14F04250300F4F6E52C042F033
:1026B80053C043F0000E456E0A0E446E7BEC14F0D6
:1026C8004250300F506E000E516E47C006F04C500D
:1026D80046EC14F04D0E076E086ACEEC13F01200AB
:1026E80038EC16F0EC0EEFEC15F0880EEFEC15F068
:1026F80016EC16F038EC16F0ED0EEFEC15F0000EB7
:10270800126E000E116ED1EC15F0036E046A1150B2
:10271800020DF350050FD96EDA6A03C0DEFF04C05C
:10272800DDFF2DEC16F0114A122A12BEA5EF13F0A8
:10273800125009E1050E115CD8A0A5EF13F0A7EF20
:1027480013F087EF13F0D1EC15F0036E03500F6E02
:10275800106A22EC16F016EC16F00750046E036AA5
:10276800055003100001606F06500410616F0B5094
:10277800046E036A09500310626F0A500410636FF5
:102788000F50046E036A0D500310646F0E5004104E
:10279800656F1200000E0B6EECEF13F00B50072460
:1027A800096E000E08200A6E09C0F6FF0AC0F7FF7E
:1027B800000EF86E0F0EF76403D00800F55005D030
:1027C800F6CFE9FFF7CFEAFFEF5042EC16F00B2AFD
:1027D8000B500724096E000E08200A6E09C0F6FF88
:1027E8000AC0F7FF000EF86E0F0EF76403D008005A
:1027F800F55005D0F6CFE9FFF7CFEAFFEF50000913
:10280800D8A409EF14F00BEF14F0D2EF13F0120074
:10281800000E066E000E056E03500410D8B417EFB4
:1028280014F019EF14F041EF14F0010E076E21EFC8
:1028380014F0D89003360436072A04AE26EF14F0B5
:1028480028EF14F01DEF14F0D89005360636035023
:10285800015C04500258D8A034EF14F036EF14F09D
:102868003BEF14F00350015E0450025A0580D890E3
:1028780004320332072E28EF14F005C001F006C019
:1028880002F012000B6E020E06604DEF14F04FEFCF
:1028980014F07AEF14F00F0E0B6455EF14F057EFA5
:1028A80014F059EF14F07AEF14F00604D8B45FEF7F
:1028B80014F061EF14F06BEF14F0800E0BC007F00A
:1028C800086A0710096E08500A6E73EF14F0C00EFC
:1028D8000BC007F0086A0710096E08500A6E09C095
:1028E80004F0010EFDEC15F0E1EC15F01200445077
:1028F8004510D8B482EF14F084EF14F0A8EF14F068
:10290800010E466E8CEF14F0D89044364536462AB0
:1029180045AE91EF14F093EF14F088EF14F04450A3
:10292800425C45504358D8A09CEF14F09EEF14F039
:10293800A2EF14F04450425E4550435AD8904532B5
:102948004432462E93EF14F042C042F043C043F0A5
:102958001200106E010E146E0DC00EF00E3A0F0E1E
:102968000E1614500E240F6E0FC0F6FF100EF76EE1
:102978000800F5CF11F00DC00EF00F0E0E16145012
:102988000E240F6E0FC0F6FF100EF76E0800F5CF7D
:1029980012F0000E136E0CC006F0105046EC14F046
:1029A800110E076E086ACEEC13F0120038EC16F020
:1029B800EC0EEFEC15F0F20EEFEC15F0040EEFEC68
:1029C80015F016EC16F038EC16F0EC0EEFEC15F0EE
:1029D800F40EEFEC15F0A70EEFEC15F016EC16F070
:1029E80038EC16F0EC0EEFEC15F0F50EEFEC15F0F8
:1029F800440EEFEC15F016EC16F01200036E0350BF
:102A0800D8B409EF15F00DEF15F0026A022A0EEF9F
:102A180015F0026A023A8C500218EF0B02188C6EFD
:102A28008C9A8C8C8C968C948C928C9000000000E4
:102A380001C002F00F0E02168C50F00B02108C6EC3
:102A4800000000008C9C1200000E3C1A000E3D1A7B
:102A5800000E3E1A800E3F1A38C001F039C002F04D
:102A68003AC003F03BC004F03CC005F03DC006F09E
:102A78003EC007F03FC008F00CEC08F001C038F089
:102A880002C039F003C03AF004C03BF0120094864B
:102A980094880F013A973A99280EC66E00000000F4
:102AA8000000040EC86E000000000000C78EC78C2E
:102AB800CB9ACB9C9E96A196280EC66E000EC56E2C
:102AC800010EC86E000EC76E12009580958295841F
:102AD80095868C8C000000008338F00B016E8C9C6E
:102AE8008C8C0000000083500F0B01128C9C959079
:102AF80095929594959601501200960EF66E2C0EAE
:102B0800F76E000EF86E0900F5CF98F00900F5CFC2
:102B180099F000EE60F0250EEE6AE806FDE1000E81
:102B2800F86E0001C0EF0FF0C7B49DEF15F0A1EFEC
:102B380015F0016A012AA2EF15F0016AC5501F0BB2
:102B480001100009D8A4ABEF15F0ADEF15F098EF20
:102B580015F01200076E38EC16F005500524EFEC5E
:102B680015F00750EFEC15F00450EFEC15F003509A
:102B7800EFEC15F016EC16F01200010E046E010EC3
:102B8800FDEC15F0110E066E3A0EE82EFED7062E55
:102B9800FCD700D0E1EC15F0120098EC15F09E96E9
:102BA800C586C7A0DAEF15F0DCEF15F0D5EF15F004
:102BB8009E96C9CF02F0025012008C988C8A69EC5C
:102BC80015F0026E02BEEBEF15F0EDEF15F0E3EF36
:102BD80015F08C9A1200026E98EC15F09E9602C0C1
:102BE800C9FF9EA6FAEF15F0FCEF15F0F5EF15F00A
:102BF8001200056E04380F0B016E055002EC15F03B
:102C080004C001F0055002EC15F0120098EC15F024
:102C18009E96C5829EA613EF16F015EF16F00EEFDE
:102C280016F0120098EC15F09E96C5849EA61FEF2C
:102C380016F021EF16F01AEF16F012009E96C58ACC
:102C4800C5889EA62AEF16F02CEF16F025EF16F091
:102C580012009E96C59AC5889EA635EF16F037EFE6
:102C680016F030EF16F012009E96C5809EA63FEF34
:102C780016F041EF16F03AEF16F01200066E06C095
:102C880004F0000EFDEC15F0E1EC15F01200DF0089
:020000040030CA
:0E000000FF281F3CFFBD81FF0FC00FE00F4027
:00000001FF
